:040000000C94330029
:100004000C9400000C9400000C9400000C9400006C
:100014000C9400000C9400000C9400000C9400005C
:100024000C9400000C9493000C9400000C940000B9
:100034000C9400000C9400000C9400000C9400003C
:100044000C9400000C9400000C9400000C9400002C
:100054004E6869657420646F3A000A0060015400B8
:100064000000F894EE27ECBBF1E0FBBFEBBFE5BF6B
:100074008DE0A2E0BB27ED938A95E9F780E094E058
:10008400A0E6ED930197E9F7EEE5F0E0859195910F
:10009400009761F0A591B59105901590BF01F0010D
:1000A40005900D920197E1F7FB01F0CFEFE5EDBF6D
:1000B400E4E0EEBFC0E6D1E00C94EE00779BFECF07
:1000C400EFB10895AA93DA98D898D99804C0AA935E
:1000D400DA98D998D89AE881E2BBDA9ADA98A4E156
:1000E400B0E00E94360121960895BA93AA930E9423
:1000F4007801AC81BD810E942A018F0120E030E0AB
:100104002017310754F4F901AC81BD81AE0FBF1F34
:10011400AC91DDDF2F5F3F4FF3CF0E947D01269628
:1001240008950A921A92FA926A937A938A939A9306
:10013400AA93BA93EA93FA93EFB7EA931A93BEDFBA
:100144001E2F1033D8F4A12FB0E0EAE0F0E00E94B3
:100154005701E05D4E2EA12FBB27EAE0F0E00E949C
:100164005C01E05D7E2EA9E8ADDFA42DB0DFA72DF4
:10017400AEDFAFEDACDFA3E4AADF1FC0113311F48F
:10018400A8981BC0123311F4A89A17C0133311F4A2
:10019400A99813C0143311F4A99A0FC0153311F49C
:1001A400AA980BC0163311F4AA9A07C0173311F496
:1001B400AB9803C0183309F4AB9A1991E991EFBFD6
:1001C400F991E991B991A99199918991799169915B
:1001D400F990199009901895EFEFEABBE0E0EBBBBA
:1001E400E0E4E7BBE0E0E8BBEFEFE4BBE0E0E5BB65
:1001F400EFEFE1BBE0E0E2BBE3BFE2BFECBFEFBD8A
:10020400EEBDEDBDECBDE7BDE6BDEBBDEABDE9BDB0
:10021400E8BDE2BDE5BDE4BDE3BDE9BFE5BFE4BFC4
:10022400EAB9E0E8E8B9E0E0E0BFE6B9E0ECEDB94E
:10023400E0E0EEB9EEB1EFB1E0E0E6BF7894ACE017
:1002440041DFA8E33FDFA0E6B1E04FDFFFCFFFCF00
:10025400BA93AA93A991B991EE27FF276D916623CA
:1002640011F03196FBCF0895109639F080ED97E0A8
:100274000197F1F7A8951197C9F70895F195E195BC
:10028400F04008950024112490E1AA0FBB1F001C24
:10029400111C0E1A1F0A18F40E0E1F1E01C0A160B5
:1002A4009A9599F7FD01D001089512D0EBDF0EF471
:1002B400E5DF0895E894B7FF04C0A095B0951196C2
:1002C4006894F7FDDBDFDEDFFD010EF4D7DF089570
:1002D400E894F7FF02C0D2DF6894B7FF06C0A09588
:1002E400B095119600F8039400FA08953A932A936E
:1002F4001A930A9308953B812A81198108810895EC
:00000001FF
