:060000000C94A0000C941A
:1000060000000C9400000C9400000C9400000C946A
:1000160000000C9400000C9400000C9400000C945A
:1000260000000C9400000C943A010C9400000C940F
:1000360000000C9400000C9400000C9400000C943A
:1000460000000C9400000C9400000C940000102793
:10005600E80364000A00010000100001100001001E
:10006600000053314C31300053314C3131005331A3
:100076004C32300053314C32310053314C33300066
:1000860053314C33310053314C34300053314C34FE
:10009600310053324C31300053324C31310053323F
:1000A6004C32300053324C32310053324C33300034
:1000B60053324C33310053324C34300053324C34CB
:1000C60031004E6869657420646F3A0002000400CE
:1000D6006600060060016800060066016E00060004
:1000E6006C017400060072017A0006007801800037
:1000F60006007E018600060084018C0006008A0147
:100106009200060090019800060096019E000600E7
:100116009C01A4000600A201AA000600A801B000E6
:100126000600AE01B6000600B401BC000600BA0126
:10013600C2000A00C001C8000000F894EE27ECBB1C
:10014600F1E0FBBFEBBFE5BF8DE0A2E0BB27ED937F
:100156008A95E9F780E094E0A0E6ED930197E9F748
:10016600E2EDF0E085919591009761F0A591B5914A
:1001760005901590BF01F00105900D920197E1F7EA
:10018600FB01F0CFEFE5EDBFE4E0EEBFC0E6D1E066
:100196000C942D02AA93DA98D898D9980E94BA029C
:1001A60052C0AA93DA98D998D89A0E94BA024BC03C
:1001B600BA93AA930E940903AC81BD810E94AE0244
:1001C6008F0120E030E02017310754F4F901AC81AB
:1001D600BD81AE0FBF1FAC91E4DF2F5F3F4FF3CF62
:1001E6000E940E0326960895AA935D9BFECFE88192
:1001F600ECB929C0BA93AA931A930A93AA81BB8130
:100206000E94AE021E2F00E0011748F4AA81BB81AE
:10021600EE27A00FBE1FAC91E7DF0F5FF5CF198168
:100226000881249608955D9BFECFECB10895AA93AC
:10023600E881EFB9779BFECF06C0AA93E881EFB9B4
:10024600779BFECFEFB121960895AA93ECE4E09355
:10025600D001EDE4E093D101E981E093D201E88198
:10026600E093D301EAE0E093D401229608950A923E
:100276001A92FA926A937A938A939A93AA93BA9362
:10028600EA93FA93EFB7EA93F201E653FE4FFF9330
:10029600EF93C9DFAF91BF91EC93F20131962F0135
:1002A600E5E0F0E0E415F50509F0C6C04424552460
:1002B600E0E0E093CF010E94C202A0E6B1E00E9416
:1002C6009A02E03029F4C098A1E3B1DFC09AB4C025
:1002D6000E94C202A6E6B1E00E949A02E03029F42A
:1002E600C098A2E3A4DFC09AA7C00E94C202ACE6EF
:1002F600B1E00E949A02E03029F4C098A3E397DFA8
:10030600C09A9AC00E94C202A2E7B1E00E949A0275
:10031600E03029F4C098A4E38ADFC09A8DC00E9419
:10032600C202A8E7B1E00E949A02E03029F4C09820
:10033600A5E37DDFC09A80C00E94C202AEE7B1E0AD
:100346000E949A02E03029F4C098A6E370DFC09AB2
:1003560073C00E94C202A4E8B1E00E949A02E03093
:1003660029F4C098A7E363DFC09A66C00E94C20260
:10037600AAE8B1E00E949A02E03029F4C098A8E306
:1003860056DFC09A59C00E94C202A0E9B1E00E949D
:100396009A02E03019F4C198A1E34CC00E94C2024F
:1003A600A6E9B1E00E949A02E03019F4C198A2E3EE
:1003B60041C00E94C202ACE9B1E00E949A02E0305C
:1003C60019F4C198A3E336C00E94C202A2EAB1E0C2
:1003D6000E949A02E03019F4C198A4E32BC00E944F
:1003E600C202A8EAB1E00E949A02E03019F4C1986C
:1003F600A5E320C00E94C202AEEAB1E00E949A02C2
:10040600E03019F4C198A6E315C00E94C202A4EB1D
:10041600B1E00E949A02E03019F4C198A7E30AC03D
:100426000E94C202AAEBB1E00E949A02E03021F4D7
:10043600C198A8E3FCDEC19AE991EFBFF991E99171
:10044600B991A9919991899179916991F9901990A8
:1004560009901895EFEFEABBE0E0EBBBE3EBE7BBF7
:10046600E0E0E8BBEFEFE4BBE0E0E5BBE1BBE2BB0D
:10047600E3BFE2BFECBFEFBDEEBDEDBDECBDE7BD3A
:10048600E6BDEBBDEABDE9BDE8BDE2BDE5BDE4BD47
:10049600E3BDE9BFE5BFE4BFEBB9E8E9EAB9E6E8E1
:1004A600E0BDE0E0E0BDE3E3E9B9E0E8E8B9E0E0BB
:1004B600E0BFE6B9E0E5EDB9E0E0EEB9E6BF789475
:1004C600ACE068DEA8E366DEA0ECB1E071DEC19ABE
:1004D600C098A0E0B2DE7E2EC09AA72DB0E0EAE07A
:1004E600F0E00E94E802E05D9E2EA72DBB27EAE021
:1004F600F0E00E94ED02E05D8E2EA9E84BDEA92D0C
:1005060050DEA82D4EDEAFED4CDEA3E44ADE9A9215
:10051600A82D9BDEA0EDB1E06DDEC198A72D87DE8C
:10052600C19AA4EFB1E00E94C702D1CFFFCFBA9320
:10053600AA93E991F991A991B9916D917191671772
:1005460021F46623D1F7EE270895671BE1F3E1E076
:1005560008F4E2500895BA93AA93A991B991EE27A7
:10056600FF276D91662311F03196FBCF0895E88140
:10057600E5BBDA9ADA98A4E1B0E00C94C702EAEC9B
:10058600F1E0FA93EA930895109639F080ED97E03A
:100596000197F1F7A8951197C9F70895F195E19597
:1005A600F04008950024112490E1AA0FBB1F001CFF
:1005B600111C0E1A1F0A18F40E0E1F1E01C0A16090
:1005C6009A9599F7FD01D001089512D0EBDF0EF44C
:1005D600E5DF0895E894B7FF04C0A095B09511969D
:1005E6006894F7FDDBDFDEDFFD010EF4D7DF08954B
:1005F600E894F7FF02C0D2DF6894B7FF06C0A09563
:10060600B095119600F8039400FA08953A932A9348
:100616001A930A9308953B812A81198108810895C6
:00000001FF
